:100000000C946C000C947E000C947E000C947E008A
:100010000C947E000C947E000C947E000C947E0068
:100020000C947E000C947E000C947E000C947E0058
:100030000C947E000C947E000C947E000C947E0048
:100040000C9480000C947E000C947E000C947E0036
:100050000C947E000C947E000C947E000C947E0028
:100060000C947E000C947E000C947E000C947E0018
:100070004841434B5745454B2100004348415254AA
:100080004245415400004C434420496E6974696103
:100090006C697A65640000001F000000001F00000A
:1000A0001F101010101F00001F181818181F000034
:1000B0001F1C1C1C1C1F00001F1E1E1E1E1F0000DC
:1000C0001F1F1F1F1F1F0003070F1F0F070300180D
:1000D0001C1E1F1E1C18000011241FBECFEFD0E1F4
:1000E000DEBFCDBF21E0A0E0B1E001C01D92A23093
:1000F000B207E1F70E9487020C94BD020C94000045
:100100001F920F920FB60F9211248F9380910101CD
:10011000882329F0809101018150809301018F9102
:100120000F900FBE0F901F9018958091000191E0E5
:10013000892780930001880F880F8BB9089584E088
:100140008AB982E080936E0099EF97BD93E095BDE8
:1001500084BD109200018AEF809301017894089584
:100160002FEF89E698E1215080409040E1F700C0F0
:1001700000000E94A3010E941D020E94320160E063
:1001800080E00E94570140E060E086E890E00E9435
:1001900065012FEF83ED90E3215080409040E1F71F
:1001A00000C000000E94320160E080E00E94570120
:1001B00040E060E08BE790E00E94650141E060E094
:1001C00080E790E00C946501982F907F98B9409A51
:1001D000429AEFE9FFE03197F1F700C00000429842
:1001E0004098EFE9FFE03197F1F700C00000F0E13F
:1001F0008F9FC001112488B9409A429A8FE99FE0ED
:100200000197F1F700C0000042984098EFE9FFE045
:100210003197F1F700C000000895982F907F98B9AA
:10022000429AEFE9FFE03197F1F700C000004298F1
:10023000EFE9FFE03197F1F700C00000F0E18F9F98
:10024000C001112488B9429A8FE99FE00197F1F724
:1002500000C000004298EFE9FFE03197F1F700C0DD
:100260000000089581E00C940D0182E00C940D01D2
:10027000EF92FF921F93CF93DF931F92CDB7DEB71C
:10028000009771F0182F7C018E2D811B861740F48A
:10029000F70181917F0169830E94E4006981F4CFB5
:1002A0000F90DF91CF911F91FF90EF9008956230F2
:1002B00031F0633031F0613029F4805C03C08C5E32
:1002C00001C08C5A80680C940D011F93CF93DF936B
:1002D000EC01862F642F0E94570110E0FE01E10F10
:1002E000F11D8491882329F084910E94E4001F5F0E
:1002F000F5CFDF91CF911F910895EF92FF920F9369
:100300001F93CF93DF938C0188E0689FB001112485
:10031000862F8064E82EC0E0D0E0F801EC0FFD1FCE
:10032000F4908C2F8E0D0E940D018F2D0E94E40001
:100330002196C830D10589F7DF91CF911F910F9198
:10034000FF90EF9008951F93CF93DF938FE59AEE80
:100350000197F1F700C0000018B818B887B1806F96
:1003600087B987B1876087B980E388B9429A8FE9F6
:100370009FE00197F1F700C0000042988FE99FE0ED
:100380000197F1F700C0000080E388B9429A8FE935
:100390009FE00197F1F700C0000042988FE99FE0CD
:1003A0000197F1F700C0000080E288B9429A8FE916
:1003B0009FE00197F1F700C0000042988FE99FE0AD
:1003C0000197F1F700C0000088E20E940D018CE067
:1003D0000E940D01C7E9D0E060E011E0160FCE01E8
:1003E0000E947D012896183011F0612FF6CFDF9121
:1003F000CF911F910895CF93DF93D82FC0E0CD17F1
:1004000029F08EE10E940D01CF5FF9CFDF91CF91EE
:100410000895CF93DF93D82FC0E0CD1729F088E15E
:100420000E940D01CF5FF9CFDF91CF9108958EE04B
:100430000C940D018FE00C940D018CE00C940D01D7
:1004400088E00C940D018CE00C940D01CF93DF93A8
:10045000D82FC0E0CD1729F080E10E940D01CF5FB9
:10046000F9CFDF91CF910895CF93DF93D82FC0E0DC
:10047000CD1729F084E10E940D01CF5FF9CFDF9104
:10048000CF910895CF92DF92EF92FF920F931F9337
:10049000CF93DF931F92CDB7DEB756E0459F900113
:1004A0001124E82FE29FC001E39F900D112470E01A
:1004B0000E94A9028B01CB0166E070E00E949502C8
:1004C000E82EC12CD12CF12CF416B9F096012B5F3B
:1004D0003F4F0217130728F40C151D0520F08E2D31
:1004E00003C085E001C080E049830E94E400F394EA
:1004F000F6E0CF0ED11C4981E7CF0F90DF91CF916D
:100500001F910F91FF90EF90DF90CF9008950E9480
:100510009F000E94B000CAEF809101018111FCCFC1
:10052000C09301010E949500F7CFAA1BBB1B51E1AC
:1005300007C0AA1FBB1FA617B70710F0A61BB70B53
:10054000881F991F5A95A9F780959095BC01CD01F8
:10055000089597FB072E16F4009407D077FD09D075
:100560000E94950207FC05D03EF4909581959F4F1F
:0E0570000895709561957F4F0895F894FFCF20
:00000001FF
