:100000000C946F000C94A3000C948C000C948C0046
:100010000C948C000C948C000C948C000C948C0030
:100020000C948C000C948C000C948C000C948C0020
:100030000C948C000C948C000C948C000C948C0010
:100040000C948E000C948C000C948C000C948C00FE
:100050000C948C000C948C000C948C000C948C00F0
:100060000C948C000C948C000C948C000C948C00E0
:100070004841434B5745454B2100004348415254AA
:10008000424541542020202043504D00004C434421
:1000900020496E697469616C697A65640000001FAB
:1000A000000000001F00001F101010101F00001F94
:1000B000181818181F00001F1C1C1C1C1F00001FF4
:1000C0001E1E1E1E1F00001F1F1F1F1F1F000307D5
:1000D0000F1F0F070300181C1E1F1E1C18001124E1
:1000E0001FBECFEFD0E1DEBFCDBF11E0A0E0B1E099
:1000F000EEE3FEE002C005900D92AE33B107D9F7F2
:1001000021E0AEE3B1E001C01D92AB3AB207E1F7E6
:100110000E94A3030C941D070C9400001F920F92E1
:100120000FB60F9211248F938091A201882329F09A
:100130008091A20181508093A2018F910F900FBEF8
:100140000F901F9018951F920F920FB60F921124C7
:100150008F939F938091A3019091A4010196909316
:10016000A4018093A3019F918F910F900FBE0F90D8
:100170001F9018958091A10191E089278093A1019A
:10018000880F880F8BB9089584E08AB9509892E05F
:1001900090936E0089EF87BD83E085BD94BD10927A
:1001A000A1019AEF9093A20185BF789408952FEF53
:1001B00089E698E1215080409040E1F700C00000BE
:1001C0000E94CA010E9444020E94590160E080E03E
:1001D0000E947E0140E060E08DE890E00E948C018A
:1001E0002FEF83ED90E3215080409040E1F700C075
:1001F00000000E94590160E080E00E947E0140E022
:1002000060E08BE790E00E948C0141E060E080E7D5
:1002100090E00C948C01982F907F98B9409A429A64
:10022000EFE9FFE03197F1F700C0000042984098F5
:10023000EFE9FFE03197F1F700C00000F0E18F9F98
:10024000C001112488B9409A429A8FE99FE0019732
:10025000F1F700C0000042984098EFE9FFE03197C5
:10026000F1F700C000000895982F907F98B9429A46
:10027000EFE9FFE03197F1F700C000004298EFE9A5
:10028000FFE03197F1F700C00000F0E18F9FC0015F
:10029000112488B9429A8FE99FE00197F1F700C0D5
:1002A00000004298EFE9FFE03197F1F700C000004D
:1002B000089581E00C94340182E00C943401EF92B3
:1002C000FF921F93CF93DF931F92CDB7DEB70097B6
:1002D00071F0182F7C018E2D811B861740F4F701D9
:1002E00081917F0169830E940B016981F4CF0F9096
:1002F000DF91CF911F91FF90EF900895623031F020
:10030000633031F0613029F4805C03C08C5E01C041
:100310008C5A80680C9434011F93CF93DF93EC01C7
:10032000862F642F0E947E0110E0FE01E10FF11D77
:100330008491882329F084910E940B011F5FF5CFDF
:10034000DF91CF911F910895EF92FF920F931F932A
:10035000CF93DF938C0188E0689FB0011124862F32
:100360008064E82EC0E0D0E0F801EC0FFD1FF490AF
:100370008C2F8E0D0E9434018F2D0E940B0121962F
:10038000C830D10589F7DF91CF911F910F91FF9070
:10039000EF9008951F93CF93DF938FE59AEE019727
:1003A000F1F700C0000018B818B887B1806F87B99E
:1003B00087B1876087B980E388B9429A8FE99FE067
:1003C0000197F1F700C0000042988FE99FE0019784
:1003D000F1F700C0000080E388B9429A8FE99FE0FE
:1003E0000197F1F700C0000042988FE99FE0019764
:1003F000F1F700C0000080E288B9429A8FE99FE0DF
:100400000197F1F700C0000042988FE99FE0019743
:10041000F1F700C0000088E20E9434018CE00E94E5
:100420003401CEE9D0E060E011E0160FCE010E9469
:10043000A4012896183011F0612FF6CFDF91CF91EB
:100440001F910895CF93DF93D82FC0E0CD1729F0E7
:100450008EE10E943401CF5FF9CFDF91CF910895F3
:10046000CF93DF93D82FC0E0CD1729F088E10E9409
:100470003401CF5FF9CFDF91CF9108958EE00C94D6
:1004800034018FE00C9434018CE00C94340188E04A
:100490000C9434018CE00C943401CF93DF93D82F6B
:1004A000C0E0CD1729F080E10E943401CF5FF9CF81
:1004B000DF91CF910895CF93DF93D82FC0E0CD1770
:1004C00029F084E10E943401CF5FF9CFDF91CF9111
:1004D0000895CF92DF92EF92FF920F931F93CF93E5
:1004E000DF931F92CDB7DEB756E0459F90011124F0
:1004F000E82FE29FC001E39F900D112470E00E945D
:100500000F048B01CB0166E070E00E94FB03E82E34
:10051000C12CD12CF12CF416B9F096012B5F3F4F72
:100520000217130728F40C151D0520F08E2D03C0AB
:1005300085E001C080E049830E940B01F394F6E05E
:10054000CF0ED11C4981E7CF0F90DF91CF911F9142
:100550000F91FF90EF90DF90CF90089587E6809302
:10056000C40088E18093C1000895CF93C82F8730DD
:1005700049F46091A9017091AA0186E391E00E947B
:1005800023040BC08A3019F48DE00E94B5028091DB
:10059000C00085FFFCCFC093C60080E090E0CF9103
:1005A0000895EF92FF920F931F93CF93DF938C01E7
:1005B00080918E0190918F01892B09F0A5C0CEE327
:1005C000D1E08091C00087FFFCCF8091C00084FD06
:1005D000AEC08091C00083FDADC08091C6008D305B
:1005E00061F48AE08883B8010E94B5028EE391E04D
:1005F00090938F0180938E0187C08A3091F3893068
:1006000009F480E290EE980F9F3510F0803AB8F030
:1006100091E0CD38D90749F46091A9017091AA0100
:1006200086E391E00E942304CCCF7E01EFEFEE1A27
:10063000FE0A8883B8010E94B502E701C2CF823169
:1006400019F130F4833009F475C0883049F0B9CF1E
:10065000873109F453C08F3719F0853141F1B1CF9B
:10066000F1E0CE33DF0709F008F4ABCFB80188E042
:100670000E94B502B80180E20E94B502B80188E08C
:100680000E94B50221979DCFB8018DE00E94B5026E
:100690008EE3E82E81E0F82EEC16FD0608F091CFEF
:1006A000B801F70181917F010E94B502F5CFF1E019
:1006B000CE33DF0709F008F484CFB80188E00E9448
:1006C000B502B80180E20E94B502B80188E00E943C
:1006D000B5022197ECCFFE0182917F01803209F4AF
:1006E00070CFB80188E00E94B502B80180E20E9494
:1006F000B502B80188E00E94B502E70181E0CE337F
:10070000D80709F040F75DCFE0918E01F0918F019D
:10071000CF01019690938F0180938E0180818A3062
:1007200021F410928F0110928E0190E005C08EEF9F
:100730009FEF02C08FEF9FEFDF91CF911F910F913D
:10074000FF90EF9008950E94C4000E94D7000E947D
:10075000AE0280E091E09093AA018093A90190936A
:10076000A6018093A5019093A8018093A701BC01E5
:100770008EE091E00E9423041092A4011092A30144
:10078000E12CF12C8AEFD82E0BE211E0C0E9D1E088
:100790008091A201811104C0D092A2010E94BA00EE
:1007A0008091A3019091A401E816F90689F39F9323
:1007B0008F931F930F93DF93CF930E944C0461E0BC
:1007C00080E00E947E01FE0101900020E9F7BF0158
:1007D000615071096059714080E991E00E945F01A8
:1007E000E090A301F090A4010F900F900F900F9054
:1007F0000F900F90CDCFAA1BBB1B51E107C0AA1FC2
:10080000BB1FA617B70710F0A61BB70B881F991FB1
:100810005A95A9F780959095BC01CD01089597FB55
:10082000072E16F4009407D077FD09D00E94FB0331
:1008300007FC05D03EF4909581959F4F08957095E3
:1008400061957F4F0895EF92FF920F931F93CF937F
:10085000DF938B01DB0113962C9121FF16C0EC0175
:10086000E12CF12C8991882371F0D8011896ED9133
:10087000FC911997B8010995892BA1F3EE24EA940C
:10088000FF24FA94EFCFC70102C08FEF9FEFCDB7DF
:10089000DEB7E6E00C940E07AEE0B0E0E2E5F4E08F
:1008A0000C94F4060D891E8986E08C831A830983D3
:1008B0008FEF9FE79E838D83AE01475E5F4F6F8909
:1008C000788DCE0101960E946E04EF81F885E00FCD
:1008D000F11F10822E96E4E00C941007ACE0B0E01B
:1008E000E4E7F4E00C94E6067C016B018A01FC016C
:1008F00017821682838181FFBDC1CE0101964C0112
:10090000F7019381F60193FD859193FF81916F012A
:10091000882309F4ABC1853239F493FD859193FFA7
:1009200081916F01853229F4B70190E00E9456064B
:10093000E7CF512C312C20E02032A0F48B3269F02B
:1009400030F4803259F0833269F420612CC08D324A
:1009500039F0803339F4216026C02260246023C03E
:10096000286021C027FD27C030ED380F3A3078F4D9
:1009700026FF06C0FAE05F9E300D1124532E13C0EF
:100980008AE0389E300D1124332E20620CC08E3246
:1009900021F426FD6BC1206406C08C3611F420685A
:1009A00002C0883641F4F60193FD859193FF819151
:1009B0006F018111C1CF982F9F7D9554933028F4FA
:1009C0000C5F1F4FFFE3F9830DC0833631F083378F
:1009D00071F0833509F05BC022C0F8018081898302
:1009E0000E5F1F4F44244394512C540115C038010D
:1009F000F2E06F0E711CF801A080B18026FF03C0E9
:100A0000652D70E002C06FEF7FEFC5012C870E945B
:100A10004B062C0183012C852F77222E17C038011D
:100A2000F2E06F0E711CF801A080B18026FF03C0B8
:100A3000652D70E002C06FEF7FEFC5012C870E942B
:100A400040062C012C852068222E830123FC1BC02C
:100A5000832D90E048165906B0F4B70180E290E08B
:100A60000E9456063A94F4CFF50127FC859127FEA3
:100A700081915F01B70190E00E94560631103A94CF
:100A8000F1E04F1A51084114510471F7E5C0843662
:100A900011F0893639F5F80127FF07C060817181AF
:100AA000828193810C5F1F4F08C06081718188270C
:100AB00077FD8095982F0E5F1F4F2F76B22E97FFF0
:100AC00009C090958095709561957F4F8F4F9F4F8E
:100AD0002068B22E2AE030E0A4010E948806A82EE9
:100AE000A81844C0853729F42F7EB22E2AE030E0C2
:100AF00025C0F22FF97FBF2E8F36C1F018F488354C
:100B000079F0B4C0803719F0883721F0AFC02F2FAB
:100B10002061B22EB4FE0DC08B2D8460B82E09C0AA
:100B200024FF0AC09F2F9660B92E06C028E030E04F
:100B300005C020E130E002C020E132E0F801B7FE5C
:100B400007C060817181828193810C5F1F4F06C055
:100B50006081718180E090E00E5F1F4FA4010E94D0
:100B60008806A82EA818FB2DFF77BF2EB6FE0BC057
:100B70002B2D2E7FA51450F4B4FE0AC0B2FC08C081
:100B80002B2D2E7E05C07A2C2B2D03C07A2C01C074
:100B9000752C24FF0DC0FE01EA0DF11D808180330C
:100BA00011F4297E09C022FF06C07394739404C017
:100BB000822F867809F0739423FD13C020FF06C0AE
:100BC0005A2C731418F4530C5718732C731468F4BC
:100BD000B70180E290E02C870E94560673942C8522
:100BE000F5CF731410F4371801C0312C24FF12C054
:100BF000B70180E390E02C870E9456062C8522FFE7
:100C000017C021FF03C088E590E002C088E790E0AC
:100C1000B7010CC0822F867859F021FD02C080E216
:100C200001C08BE227FD8DE2B70190E00E945606DD
:100C3000A51438F4B70180E390E00E9456065A9458
:100C4000F7CFAA94F401EA0DF11D8081B70190E07D
:100C50000E945606A110F5CF332009F451CEB701FA
:100C600080E290E00E9456063A94F6CFF701868122
:100C7000978102C08FEF9FEF2C96E2E10C94020760
:100C8000FC010590615070400110D8F78095909557
:100C90008E0F9F1F0895FC0161507040019001105C
:100CA000D8F7809590958E0F9F1F08950F931F93EF
:100CB000CF93DF93182F092FEB018B8181FD03C0A8
:100CC0008FEF9FEF20C082FF10C04E815F812C818B
:100CD0003D81421753077CF4E881F9819F012F5F22
:100CE0003F4F39832883108306C0E885F985812F1B
:100CF0000995892B29F72E813F812F5F3F4F3F8335
:100D00002E83812F902FDF91CF911F910F91089506
:100D1000FA01AA27283051F1203181F1E8946F932C
:100D20006E7F6E5F7F4F8F4F9F4FAF4FB1E03ED0D2
:100D3000B4E03CD0670F781F891F9A1FA11D680F70
:100D4000791F8A1F911DA11D6A0F711D811D911DA3
:100D5000A11D20D009F468943F912AE0269F112418
:100D60003019305D3193DEF6CF010895462F47707C
:100D7000405D4193B3E00FD0C9F7F6CF462F4F70D7
:100D8000405D4A3318F0495D31FD4052419302D035
:100D9000A9F7EACFB4E0A6959795879577956795DB
:100DA000BA95C9F700976105710508959B01AC01DB
:100DB0000A2E06945795479537952795BA95C9F702
:100DC000620F731F841F951FA01D08952F923F92DD
:100DD0004F925F926F927F928F929F92AF92BF924B
:100DE000CF92DF92EF92FF920F931F93CF93DF93F7
:100DF000CDB7DEB7CA1BDB0B0FB6F894DEBF0FBE54
:100E0000CDBF09942A88398848885F846E847D84A0
:100E10008C849B84AA84B984C884DF80EE80FD80A2
:100E20000C811B81AA81B981CE0FD11D0FB6F89418
:0E0E3000DEBF0FBECDBFED010895F894FFCFD9
:100E3E000000000300000000B502D1020000537450
:100E4E00617274696E672047656967657220436FCA
:100E5E00756E7465722E2E2E0A0D00436C69636BCF
:0E0E6E00733A202569002A72696E672A0A000D
:00000001FF
